:100000000C9430040C9458040C9458040C94580428
:100010000C9458040C9458040C9458040C945804F0
:100020000C9458040C9458040C94530C0C94C20C6B
:100030000C9458040C9458040C9458040C945804D0
:100040000C9458040C9458040C9458040C945804C0
:100050000C9458040C9458040C9458040C94F40E0A
:100060000C9458040C9458040C9458040C945804A0
:100070000C9458040C9458040C9458040C94580490
:100080000C9458040C9458040C9458040C94580480
:100090000C9458040C9458040C9458040C94580470
:1000A0000C9458040C9458040C945804030F181022
:1000B000030F681002104028010340320210281C70
:1000C0000210601C030F140C030F6C0C0208402A72
:1000D0000103190F0103670F030F400A02102828BC
:1000E000021058280208281402085814030F402848
:1000F0000210401C0103140F0103640F030F3C2383
:1001000001031E1401035A1401033C2803C4000216
:10011000BC0004AC0003000103F40001F00003E4A0
:100120000005D000030C01051501030E0A0A25087D
:1001300010085220100A6C0C080E00000000003E4F
:100140005B4F5B3E3E6B4F6B3E1C3E7C3E1C183C47
:100150007E3C181C577D571C1C5E7F5E1C00183CA3
:100160001800FFE7C3E7FF0018241800FFE7DBE7EC
:10017000FF30483A060E2629792926407F050507D3
:10018000407F05253F5A3CE73C5A7F3E1C1C08082F
:100190001C1C3E7F14227F22145F5F005F5F0609F4
:1001A0007F017F006689956A606060606094A2FF4D
:1001B000A29408047E040810207E201008082A1C3F
:1001C00008081C2A08081E101010100C1E0C1E0C0B
:1001D00030383E3830060E3E0E06000000000000AB
:1001E000005F00000007000700147F147F14242A1A
:1001F0007F2A1223130864623649562050000807EC
:100200000300001C2241000041221C002A1C7F1C0C
:100210002A08083E0808008070300008080808080E
:10022000000060600020100804023E5149453E0075
:10023000427F400072494949462141494D331814D3
:10024000127F1027454545393C4A49493141211122
:1002500009073649494936464949291E0000140014
:100260000000403400000008142241141414141437
:10027000004122140802015909063E415D594E7C95
:100280001211127C7F494949363E414141227F414A
:1002900041413E7F494949417F090909013E4141A8
:1002A00051737F0808087F00417F41002040413F93
:1002B000017F081422417F404040407F021C027FA2
:1002C0007F0408107F3E4141413E7F090909063EF7
:1002D0004151215E7F0919294626494949320301C6
:1002E0007F01033F4040403F1F2040201F3F4038D8
:1002F000403F631408146303047804036159494DB3
:1003000043007F4141410204081020004141417FE8
:10031000040201020440404040400003070800205E
:10032000545478407F28444438384444442838445E
:1003300044287F385454541800087E090218A4A495
:100340009C787F0804047800447D40002040403DB4
:10035000007F1028440000417F40007C047804782E
:100360007C080404783844444438FC1824241818C1
:10037000242418FC7C08040408485454542404041D
:100380003F44243C4040207C1C2040201C3C40300A
:10039000403C44281028444C9090907C4464544C39
:1003A0004400083641000000770000004136080094
:1003B00002010204023C2623263C1EA1A161123A3E
:1003C0004040207A3854545559215555794121548B
:1003D000547841215554784020545579400C1E5290
:1003E0007212395555555939545454593955545434
:1003F000580000457C410002457D420001457C409B
:10040000F0292429F0F0282528F07C5455450020B7
:1004100054547C547C0A097F493249494932324854
:10042000484832324A4848303A4141217A3A4240BB
:100430002078009DA0A07D39444444393D4040408F
:100440003D3C24FF2424487E4943662B2FFC2F2B60
:10045000FF0929F620C0887E090320545479410001
:1004600000447D413048484A32384040227A007A80
:100470000A0A727D0D19317D2629292F282629295E
:10048000292630484D402038080808080808080880
:10049000382F10C8ACBA2F102834FA00007B0000A7
:1004A00008142A142222142A14089500220095AA5E
:1004B000005500AAAA55AA55AA000000FF00101076
:1004C00010FF00141414FF001010FF00FF1010F0B4
:1004D00010F0141414FC001414F700FF0000FF00C7
:1004E000FF1414F404FC141417101F10101F101F15
:1004F0001414141F00101010F0000000001F101042
:1005000010101F10101010F010000000FF1010103D
:10051000101010101010FF10000000FF140000FF5A
:1005200000FF00001F10170000FC04F41414171043
:10053000171414F404F40000FF00F7141414141436
:100540001414F700F7141414171410101F101F14AC
:100550001414F4141010F010F000001F101F00000D
:10056000001F14000000FC140000F010F01010FF39
:1005700010FF141414FF141010101F00000000F0DE
:1005800010FFFFFFFFFFF0F0F0F0F0FFFFFF0000B3
:10059000000000FFFF0F0F0F0F0F38444438447C5A
:1005A0002A2A3E147E02020606027E027E0263555D
:1005B0004941633844443C04407E201E2006027EAC
:1005C000020299A5E7A5991C2A492A1C4C720172BE
:1005D0004C304A4D4D303048784830BC625A463D28
:1005E0003E494949007E0101017E2A2A2A2A2A44DD
:1005F000445F444440514A444040444A5140000012
:10060000FF0103E080FF000008086B6B083612361C
:100610002436060F090F06000018180000001010FD
:10062000003040FF0101001F01011E00191D1712BB
:10063000003C3C3C3C0000000000F0F89C8E8783AE
:10064000878E9CF8F00000FEFF0303030303070EF0
:10065000FCF80000FEFF0303030303070EFCF80091
:1006600000FFFF00000000000000FFFF0000FEFF91
:100670008383838383C7EE7C380000F8FC0E070376
:100680000303070EFCF800003F7FE0C08080C0E05D
:100690007F3FFFFF01010101010101FFFF0000FF9A
:1006A000FF0C0C0C0C1C3E77E3C100007FFFC0C0A8
:1006B000C0C0C0E0703F1F00001F3F70E0C0C0C05E
:1006C000E0703F1F00007FFFC1C1C1C1C1E3773EA1
:1006D0001C00001F3F70E0C0C0C0E0703F1F000062
:1006E00000000001FFFF01000000D5F08D14A1C83B
:1006F00081CFD9F1AF20003E7F555D557F3E060981
:1007000009090602060202070E0106080F0E01067D
:10071000010E09090F01010F080E010E06080E094E
:10072000060F010204040609060906060907010668
:1007300006090F09090E090E090E07080808070E19
:100740000909090E0F080E080F0F080E0808090600
:1007500006060904040E0909412F4220544F204384
:100760004F4E54494E55450054494D4520544F2055
:10077000524553540053434F52453A20005354417D
:10078000474520434C454152454400412F422054A7
:100790004F205354415254004155544F2046495222
:1007A00045202F203320485000442D504144204DF7
:1007B0004F5645202F2041204441534800434F4D80
:1007C0004241542054455354004741524241474509
:1007D00020434F4C4C4543544F52002701240108FD
:1007E0000B000202020000090400000102020000E6
:1007F000052400100105240101010424020605243A
:100800000600010705810310004009040100020AE7
:1008100000000007050202400000070583024000B7
:10082000000403090412010002EF020140412336D3
:100830008000010102030141726475696E6F204CF2
:100840004C430041726475696E6F204C656F6E6138
:1008500072646F003A44415348003A2D2D00710FE5
:1008600011241FBECFEFDAE0DEBFCDBF11E0A0E064
:10087000B1E0EEE3FBE302C005900D92A233B107B5
:10088000D9F726E0A2E3B1E001C01D92A133B2077F
:10089000E1F714E0C0E3D4E004C02197FE010E9418
:1008A000971DCF32D107C9F70E948E0F0C949D1D62
:1008B0000C9400009C01480F592F511D4115510502
:1008C00061F1803891054CF54138510514F040E84C
:1008D00050E0421BCB018770992791E001C0990F2E
:1008E0008A95EAF777FF02C0695F7F4FFB0183E0DB
:1008F000F595E7958A95E1F7F695FE2FEE27F795A2
:10090000E795E20FF31FE352FE4F415030F0819123
:10091000DF011197892B8C93F8CF0895EDEDF1E06D
:10092000A0E0B8E000800EBC8111012C1197A0FD61
:10093000FDCF0192B9F70DB40895FC018091D80163
:10094000882311F13FB7F89482E08093E900209169
:10095000F200822F90E01816190614F481E090E05E
:10096000882339F0289844E64093D7014091F1005C
:100970004083222339F02091F200211103C02BE69D
:100980002093E8003FBF08958FEF9FEF08952FB7A2
:10099000F89483E08093E9009091E800892F8072B9
:1009A00095FF04C09091F20080E4891B2FBF089549
:1009B0008091CF0181110DC082E08093CB0184E052
:1009C0008093CC011092CE011092CD0181E08093F2
:1009D000CF018BEC91E00895CF93DF931F92CDB7B9
:1009E000DEB76983DC01ED91FC910280F381E02D9B
:1009F00041E050E0BE016F5F7F4F09950F90DF919E
:100A0000CF91089583E08093E9008091F2008823DC
:100A100019F08AE38093E80008950E94C70490E0EB
:100A20000895CF93DF931F92CDB7DEB7FC01848585
:100A3000958597FD08C02FEF3FEF358724870F90EE
:100A4000DF91CF910895CE0101960E949D040197F8
:100A500019F4898190E0F3CF8FEF9FEFF0CF0F93E0
:100A60001F93CF93DF931F92CDB7DEB78C01FC01AC
:100A70008485958597FF0BC0CE0101960E949D0449
:100A8000019771F4898190E0F80195878487F801D6
:100A9000848595850F90DF91CF911F910F910895D7
:100AA0008FEF9FEFF1CFFC018485958597FD0BC0FB
:100AB0009FB7F89482E08093E9008091F2009FBF95
:100AC00090E0019608959FB7F89482E08093E90042
:100AD0008091F2009FBF90E008954091C501509130
:100AE000C6012091C3013091C40142175307B4F4E9
:100AF0009091E8009570E1F39091E80092FD19C0A3
:100B00008093F1008091C5019091C60101968F7389
:100B10009927892B19F48EEF8093E8008091C50105
:100B20009091C60101969093C6018093C50181E022
:100B3000089580E00895DF92EF92FF920F931F9344
:100B4000CF93DF93D82E8A01EB017B01E40EF51ED3
:100B5000CE15DF0559F0D7FE12C0FE0184910E9428
:100B60006D0521968111F4CF0FEF1FEFC801DF91C2
:100B7000CF911F910F91FF90EF90DF9008958881A2
:100B8000EECF0F931F93CF93DF931F92CDB7DEB7B6
:100B900082E0898342E450E06FED77E080E80E94D4
:100BA0009B050E94D804DC0112960D911C91011541
:100BB000110589F0D801ED91FC910280F381E02DBF
:100BC000BE016F5F7F4FC801099597FD04C0F80112
:100BD00000851185ECCF89810F90DF91CF911F9116
:100BE0000F910895615030F02091F100FC012083B5
:100BF0000196F8CF289884E68093D70108953FB7EF
:100C0000F8948091BF019091C001A091C101B09171
:100C1000C20126B5A89B05C02F3F19F00196A11D62
:100C2000B11D3FBFBA2FA92F982F8827BC01CD0136
:100C3000620F711D811D911D42E0660F771F881F95
:100C4000991F4A95D1F708958F929F92AF92BF92C4
:100C5000CF92DF92EF92FF926B017C010E94FF0521
:100C60004B015C01C114D104E104F104B9F00E940C
:100C7000FF05681979098A099B09683E7340810557
:100C8000910580F321E0C21AD108E108F10888EE4D
:100C9000880E83E0981EA11CB11CE4CFFF90EF905A
:100CA000DF90CF90BF90AF909F908F9008958F92DC
:100CB0009F92AF92BF92CF92DF92EF92FF920F93EB
:100CC0001F93CF93DF936C017B018A0180910C010C
:100CD000882309F45CC08091D801882309F457C0A7
:100CE0008091CA0180FF05C08091E00082608093FE
:100CF000E000E801B12C8AEFA82E93E0892E2AE3C8
:100D0000922E209711F4BB20D9F10E94C7048111C3
:100D10000AC0AA94AA20D9F161E070E080E090E0D6
:100D20000E942406EECF8C171D0611F00CF08C2FBC
:100D30009FB7F8948092E9002091E80025FD02C059
:100D40009FBFDFCF282F30E0C21BD30BF7018150AC
:100D500020F041914093F100FACFE20EF31EBB2048
:100D600021F09092E800B12CEBCF8091E80085FD56
:100D7000E7CF9092E800BB24B394209709F3F3CF18
:100D80005D9884E68093C901101611063CF081E05D
:100D900090E0F6019383828310E000E0C801DF91C8
:100DA000CF911F910F91FF90EF90DF90CF90BF9068
:100DB000AF909F908F900895AF92BF92CF92DF92A5
:100DC000EF92FF920F931F93CF93DF936C017B0100
:100DD0008B01040F151FEB015E01AE18BF08C01791
:100DE000D10759F06991D601ED91FC910190F08104
:100DF000E02DC6010995892B79F7C501DF91CF91C7
:100E00001F910F91FF90EF90DF90CF90BF90AF9028
:100E100008952D9A0895BC0190E080E00C9424067A
:100E20008FB18095807F669B88601C9B846008954D
:100E3000CF93C82F0E941007982F9C2381E09C130A
:100E400080E0CF91089580E00C948E048038910565
:100E5000B8F460347105A0F420E191E061FD94E004
:100E600060FD990F62FD9295687F269FD001112445
:100E7000A80FA352BE4F8C9140FF03C0892B8C93C7
:100E8000089590958923FBCF8F929F92AF92BF9246
:100E9000CF92DF92EF92FF920F931F93CF93DF9346
:100EA0006D3009F458C06A3009F445C080913201B0
:100EB000811139C0C090D901D090DA010091DB01D5
:100EC0001091DC0185E0689FE0011124C65CDE4FD3
:100ED0004801F12CE5E0E12CFE1629F0CE01019647
:100EE000FE01E490EC01B12CA12C4E2D4170B60115
:100EF0006A0D7B1DC4010E942607E694FFEFAF1A1E
:100F0000BF0A88E0A816B10481F7F394EFEF8E1AB8
:100F10009E0AF6E0FF12DECF0A5F1F4F1093DC013E
:100F20000093DB0118C08091DB019091DC018C37CC
:100F300091050CF4BFCF1092DC011092DB0180917F
:100F4000D9019091DA0108969093DA018093D90142
:100F50006A3009F0AFCF81E090E0DF91CF911F912F
:100F60000F91FF90EF90DF90CF90BF90AF909F9048
:100F70008F9008950F931F93CF93DF938C01D0E050
:100F8000C0E0F801EC0FFD1F6491662341F08DE293
:100F900096E00E944407892B11F02196F2CFCE01F2
:100FA000DF91CF911F910F910895DF92EF92FF9201
:100FB0000F931F93CF93DF937C01D22E8B01040FED
:100FC000111DEB0177FF02C0D0E0C0E0C801013481
:100FD000110514F080E490E0C817D9073CF44D2DBA
:100FE000BE01C7010E9426072196F0CFDF91CF9165
:100FF0001F910F91FF90EF90DF900895EF92FF9275
:101000000F931F93CF93DF937C018B01C42FD22FBB
:101010006034710514F40E945A04B8016D0F711DFB
:10102000615071096034710524F44C2FC7010E948E
:101030005A0421E04D2FB801C7010E94D507C7010E
:101040008C0F911D21E04D2FB8010197DF91CF91B9
:101050001F910F91FF90EF900C94D5070F931F9362
:10106000CF93DF938A01C82FD0E0D093DC01C093E7
:10107000DB011092DA011092D9018DE296E00E9414
:101080004407F8018081811108C08AE598E0DF916A
:10109000CF911F910F910C94BA0784E598E00E94BC
:1010A000BA0726E047E161E070E0CE0186960E9433
:1010B000FE07F80181816AEF70E09B01281B31096E
:1010C00045E1429FC001439F900D11240E94601D85
:1010D000662381F0A7968E01060F111DC017D10758
:1010E0004CF421E044E062E070E0CE010E94D507BC
:1010F0002196F4CFDF91CF911F910F910895E82FA2
:10110000F0E0EE0FFF1FE552F84F25913491F90101
:10111000319685919491F9012491621728F060E04D
:1011200070E080E090E00895FC0123E0629FE00D14
:10113000F11D11248491481790F73196859194916F
:10114000E4E04E9FA0011124480F591FFA01649159
:101150003196749131968491319694910895E82F47
:10116000F0E0EE0FFF1FE552F84F25913491F901A1
:10117000319685919491F9012491621740F4F3E03E
:101180006F9F800D911D1124FC018491089580E0D2
:101190000895089590E080E00895FB0121812111D8
:1011A0000BC02081213041F4DC012C91211104C0BD
:1011B00026E02C938AEF818308954F925F926F927D
:1011C0007F928F929F92AF92BF92CF92DF92EF92D7
:1011D000FF920F931F93CF93DF936C015901D801B6
:1011E0001296FC901297FF2009F4D2C013967C90BF
:1011F0001397772009F4CCC0FA01E80FF91F260FE6
:10120000371F8C018E179F0714F48F01FC014B01CF
:101210006217730714F449019B01CC9180E1C89FC8
:10122000E001112490E1F99E200111244C0E5D1E75
:101230000C171D070CF070C0D850720181E0E81A3D
:1012400088E0F80A0C171D070CF4A2C0EE16FF0682
:101250000CF49EC01196EC9190E1E99FF0011124ED
:10126000A0E17A9EC00111248E0F9F1F8E169F064B
:101270000CF061C0E058F3408C01015813408E1609
:101280009F060CF485C0021713070CF481C09F0160
:10129000261B370BDA010E94881D2B013C019E01A1
:1012A0002C193D09D5010E94881D461A570A680A63
:1012B000790A97012C1B3D0B0E94881D7301620166
:1012C000C61AD70AE80AF90A98012E1B3F0BDA0161
:1012D0000E94881D8B019C01040D151D261D371DC4
:1012E000DC01CB018C0D9D1DAE1DBF1D141415041A
:1012F0001604170464F51C141D041E041F0454F482
:1013000010161106120613062CF4181619061A06E2
:101310001B06F4F181E02BC0720191E0E91AF1089B
:10132000EE16FF060CF096CFD85F720181E0E81A46
:1013300088EFF80A87CF8C010150110902171307B3
:101340000CF0A5CFE058FC4F00581C4F98CF77FE0B
:10135000E1CFF7FEDFCF37FFDDCF80959095A095E9
:10136000B0958827B7FD83959927AA27BB27DF91DA
:10137000CF911F910F91FF90EF90DF90CF90BF9092
:10138000AF909F908F907F906F905F904F90089557
:1013900080E0EDCF9B01281B390BC9019A013595DF
:1013A0002795281739071CF4841B950B08959A017B
:1013B00057FF02C02F5F3F4F3595279531952195F7
:1013C00031098217930714F4840F951F089597FF2E
:1013D00003C0860F971F08958617970714F0861B82
:1013E000970B0895EF92FF921F93CF93DF937C01A9
:1013F000CB01142F68E370E00E94E709EC0160E87C
:1014000070E0C7010E94E709BE01685F7F4F412F6E
:10141000DF91CF911F91FF90EF900C9426070C94D1
:101420000D1DCF93DF9300D000D0CDB7DEB7843051
:1014300051F460E070E0CB010F900F900F900F908F
:10144000DF91CF91089594E0899FB0011124665DEA
:101450007E4F44E050E0CE0101960E94041D698158
:101460007A818B819C81E8CFAF92BF92CF92DF923D
:10147000FF920F931F93CF93DF9397FD0F9654E046
:10148000959587955A95E1F79B0177FF02C0215FFB
:101490003F4F44E0359527954A95E1F7F12C6C01D3
:1014A00045E0C41AD1088C010B5F1F4F590182E03F
:1014B000A81AB108E90122968F2D0E94110A492F1E
:1014C000262F30E0820F932F911D8C159D05CCF0B7
:1014D00002171307B4F0872F90E0480F592F511DC2
:1014E0004A155B0574F0C817D9075CF081E0DF91FD
:1014F000CF911F910F91FF90DF90CF90BF90AF9051
:101500000895F39444E0F412D7CF80E0F0CFAF9287
:10151000BF92CF92DF92FF920F931F93CF93DF93EF
:1015200097FD0F9654E0959587955A95E1F79B01A5
:1015300077FF02C0215F3F4F44E0359527954A95DC
:10154000E1F7F12C6C0145E0C41AD1088C010B5F66
:101550001F4F590182E0A81AB108E90122968F2D88
:101560000E94110A492F262F30E0820F932F911DE0
:101570008C159D05CCF002171307B4F0872F90E06F
:10158000480F592F511D4A155B0574F0C817D9072C
:101590005CF080E0DF91CF911F910F91FF90DF9081
:1015A000CF90BF90AF900895F39444E0F412D7CF5A
:1015B00081E0F0CF2F923F924F925F926F927F9295
:1015C0008F929F92AF92BF92CF92DF92EF92FF9253
:1015D0000F931F93CF93DF93582FE62FE901242F0A
:1015E00030E0A7EEB0E00E94451D6B017C0129EBC5
:1015F000C22629E7D22627E3E2262EE9F2262E2F5D
:1016000030E0ADEEB1E50E94451DC626D726E8269E
:10161000F926252F30E0A7E3BEE90E94451DC62626
:10162000D726E826F9265CE1352E68E3462E512CB4
:10163000612C712CD701C6012DE0880F991FAA1FBC
:10164000BB1F2A95D1F7C826D926EA26FB26D70143
:10165000C60131E1B695A795979587953A95D1F74B
:101660008C259D25AE25BF25AC01BD01E5E0440FCD
:10167000551F661F771FEA95D1F784279527A62760
:10168000B727282EE89427F8AC01BD01FDE0440FF0
:10169000551F661F771FFA95D1F784279527A62730
:1016A000B727AC01BD0121E1769567955795479520
:1016B0002A95D1F76C017D01C426D526E626F726AA
:1016C000D701C60135E0880F991FAA1FBB1F3A95A5
:1016D000D1F7C826D926EA26FB26C701B601A30101
:1016E00092010E94231D4B0144E0660F771F4A952B
:1016F000E1F7E0E12E9EC00111240E94870A8823B1
:10170000B1F02882F8018082DF91CF911F910F9173
:10171000FF90EF90DF90CF90BF90AF909F908F9011
:101720007F906F905F904F903F902F9008953A94E4
:10173000311080CF80E488838CE1F8018083E4CF8E
:101740006F927F928F929F92AF92BF92CF92DF92D1
:10175000FF920F931F93CF93DF9300D000D0CDB7AC
:10176000DEB76C015B014A013901F12C8F2D0E941B
:10177000110A69837A838B839C838E010F5F1F4FCD
:101780009301A401B501C6010E94DD08811104C0C6
:10179000F39494E0F912EACF0F900F900F900F900E
:1017A000DF91CF911F910F91FF90DF90CF90BF906D
:1017B000AF909F908F907F906F9008953F924F923F
:1017C0005F926F927F928F929F92AF92BF92CF92D1
:1017D000DF92EF92FF920F931F93CF93DF93EC0171
:1017E0004B01312C2B0140E8441A43E0540A3B01E1
:1017F00061E1661A63E0760A840101591F4F7C019A
:1018000088E0F81A6E0141E9C41A47E0D40A5E0183
:101810006FE6A60EB11C832D0E94110A40E1649F61
:101820009001112460E1869FA0011124420F531FF3
:10183000C417D5071CF4A216B30634F4E416F50653
:1018400064F5C216D3064CF180E1789F9001112413
:1018500040E1949FC0011124820F931F88169906BE
:101860001CF40217130734F448165906B4F4621630
:1018700073069CF081E0DF91CF911F910F91FF9053
:10188000EF90DF90CF90BF90AF909F908F907F9020
:101890006F905F904F903F900895339464E03612BC
:1018A000BACF80E0E8CF1F920F920FB60F921124AB
:1018B0008F939F938091E1009091E100937F9093AB
:1018C000E10083FF0FC01092E90091E09093EB00DC
:1018D0001092EC0092E39093ED001092D80198E002
:1018E0009093F00082FF22C093E09093E9009091E2
:1018F000F200992319F09AE39093E8009091C901BE
:10190000992341F09091C90191509093C90191118F
:1019100001C05D9A9091D701992341F09091D70130
:1019200091509093D701911101C0289A84FF18C05B
:101930008091E2008E7E81608093E2008091E100E0
:101940008F7E8093E1008091CA018E7E80618093BA
:10195000CA019F918F910F900FBE0F901F90189505
:1019600080FFF7CF8091E2008E7E80618093E2005D
:101970008091E1008E7E8093E1008091CA018E7E8D
:101980008160E5CF1F920F920FB60F921124CF9274
:10199000DF92EF92FF920F931F932F933F934F93FA
:1019A0005F936F937F938F939F93AF93BF93EF93C7
:1019B000FF93CF93DF93CDB7DEB76C97DEBFCDBF7C
:1019C0001092E9008091E80083FF25C068E0CE0115
:1019D00045960E94F20582EF8093E8008D8987FF8B
:1019E00039C09091E80090FFFCCF982F907609F0D5
:1019F00034C19E894F89588D2F89F88C911131C03F
:101A0000803861F58091C8018093F1001092F10057
:101A10008EEF8093E8006C960FB6F894DEBF0FBE91
:101A2000CDBFDF91CF91FF91EF91BF91AF919F918A
:101A30008F917F916F915F914F913F912F911F9166
:101A40000F91FF90EF90DF90CF900F900FBE0F900F
:101A50001F9018959EEF9093E800C7CF1092F10069
:101A6000D5CF913059F48111D3CF4130510581F652
:101A70008091C8018D7F8093C801CACF933049F40B
:101A80008111C6CF4130510519F68091C80182609D
:101A9000F2CF953041F48091E80080FFFCCF2068C0
:101AA0002093E300B5CF963009F0A9C00B8D1C8DB3
:101AB00022E01092E9001092C6011092C501F212C4
:101AC0002EC01092C4011092C3010E94C1051F8252
:101AD00099E09983FA8291E09E8390EA98879AEF41
:101AE00099872091C5013091C601275F3F4F3C8304
:101AF0002B838D831092E9001092C6011092C501CC
:101B00001093C4010093C30149E050E0BE016F5F30
:101B10007F4F80E00E949B050E94C10579CF109302
:101B2000C4010093C3010E94D804DC0112960D91F8
:101B30001C910115110509F451C1D801ED91FC91D9
:101B40000480F581E02DBE016B5E7F4FC8010995D1
:101B5000009709F03EC1F80100851185EACFF3E056
:101B6000FF120EC08F89882309F440C0823061F4CF
:101B700040E860E183E498E00E943E0F811148CF85
:101B800081E28093EB0047CF813029F440E86BE09D
:101B900087E398E0F1CF833099F70E94D804DC0105
:101BA0001296ED90FC908E010F5F1F4F6801E114BB
:101BB000F10479F0D701ED91FC910680F781E02DD9
:101BC000B801C7010995080F111DF701E084F184E0
:101BD000EECFD8011C92F60101900020E9F7319771
:101BE000BF016C197D0940E0C601C6CF61E278E013
:101BF000FB01449150E080E80E949B0509CF97309B
:101C000009F4BECF983021F481E08093F10000CF39
:101C1000993009F0FDCE837009F0B2CFEEE0F1E02B
:101C200081E031E096E32191222371F08093E90075
:101C30003093EB00DF0111972C912093EC009093EF
:101C4000ED008F5F873079F78EE78093EA0010927E
:101C5000EA008F898093D801DBCE8B8D9C8D10920A
:101C6000E9001092C6011092C5019093C4018093BF
:101C7000C301898D811192C08E899D89913A49F461
:101C8000813209F07DCF47E050E065E071E080E00F
:101C9000B3CF913209F074CF833269F48F89988D74
:101CA000B0E0A0E08093010190930201A0930301B2
:101CB000B0930401ADCE803269F48091E80082FFD8
:101CC000FCCF67E085E091E00E94F2058BEF809306
:101CD000E8009ECE823209F09BCE8F8980930C0162
:101CE000EEEFFFE7859194918B3F9C4D51F1E0E041
:101CF000F8E08091050190910601A0910701B09153
:101D00000801803B9440A105B105F1F480910C01DC
:101D100080FD1AC0EE3F8AE0F80789F587E797E76C
:101D200091838083809160008093C70188E19BE06C
:101D30000FB6F894A895809360000FBE9093600052
:101D400067CEEEEFFAE0D5CF808191818737974754
:101D500009F05ECEA8958091600088618093600054
:101D60008091C70180936000EE3F2AE0F20789F07E
:101D70008091FE0A9091FF0A9183808349CE8081F1
:101D800091818737980751F29093FF0A8093FE0A5A
:101D9000C5CF1092FF0A1092FE0A3ACE0E94D804D4
:101DA000DC0112960D911C910115110509F4E8CE84
:101DB000D801ED91FC910190F081E02DBE016B5EA8
:101DC0007F4FC8010995811123CEF8010085118547
:101DD000EBCF181619060CF41BCED2CEF1E0FF1291
:101DE000BECE65E278E004CF1F920F920FB60F923D
:101DF00011242F933F938F939F93AF93BF93809121
:101E0000BB019091BC01A091BD01B091BE01309188
:101E1000BA0123E0230F2D3758F50196A11DB11DFE
:101E20002093BA018093BB019093BC01A093BD01A4
:101E3000B093BE018091BF019091C001A091C101FA
:101E4000B091C2010196A11DB11D8093BF01909375
:101E5000C001A093C101B093C201BF91AF919F9106
:101E60008F913F912F910F900FBE0F901F9018955B
:101E700026E8230F0296A11DB11DD2CFEF92FF924B
:101E80000F931F93CF93DF93F82E192FE62E042F75
:101E900081E0860F880F0E946D0583E00E946D052A
:101EA000CF2DD12FEC0EFD2EF11CCE15DF05B9F094
:101EB00007FF13C0FE0184910E946D05182F80E07A
:101EC0000E946D05812321968111EFCFDF91CF9183
:101ED0001F910F91FF90EF9008958881EDCF81E0E1
:101EE000F5CFEDEDF5E01382128288EE93E0A0E0ED
:101EF000B0E084839583A683B78388E191E09183E2
:101F000080838FEF9FEF95878487EDE2F6E0138261
:101F100012828AE291E0918380830895CF93DF93C8
:101F2000CDB7DEB7E2970FB6F894DEBF0FBECDBFD8
:101F3000789484B5826084BD84B5816084BD85B5A4
:101F4000826085BD85B5816085BD80916E008160B0
:101F500080936E0010928100809181008260809356
:101F60008100809181008160809381008091800058
:101F700081608093800080919100826080939100C5
:101F800080919100816080939100809190008160A8
:101F9000809390008091C10084608093C100809103
:101FA000C10082608093C1008091C10081608093F4
:101FB000C1008091C30081608093C3008091C00004
:101FC00082608093C0008091C20081608093C200D3
:101FD00080917A00846080937A0080917A00826098
:101FE00080937A0080917A00816080937A0080915A
:101FF0007A00806880937A001092D8011092C8010C
:102000001092CA018091D70081608093D70080EA46
:102010008093D80089B5806189BD89B5826089BD0A
:1020200009B400FEFDCF61E070E080E090E00E9426
:1020300024068091D8008F7C80618093D8008091A5
:10204000E000807F8093E0008091E1008E7E8093AD
:10205000E1008DE08093E200559A209A81EC809314
:102060007C0085B1806F85B984B1877E84B984B1E5
:10207000876E84B95E9A5F988AB1806D8AB9769AC4
:102080006E9881B3806F81BB899880B38D7080BB5F
:1020900080E58CBD81E08DBD85E090E00E940B075E
:1020A0005F9A85E090E00E940B075E985C98EAEEEC
:1020B000F6E087EF96E024912EBD00000DB407FEF8
:1020C000FDCF31968E179F07B1F75C9A81E8809318
:1020D0006400809165008160809365000E94230701
:1020E00080E80E9418078823A9F05C9885EA8EBDD5
:1020F00000000DB407FEFDCF5C9A2E982F982D9806
:102100008091640080628093640081E083BF889541
:1021100013BEFCCF84E00E941807882309F448C04E
:102120002D9884E80E9418078823E1F00E9409078F
:1021300088EC90E00E940B072F9882E090E00E94CC
:102140000D1D8F3F29F06FEF82E090E00E94151D7A
:1021500084EF91E00E940B072F9A84E80E941807F1
:102160008111FBCF84E10E9418078823E1F00E94CF
:10217000090788EC90E00E940B072E9882E090E01F
:102180000E940D1D882329F060E082E090E00E940B
:10219000151D84EF91E00E940B072E9A84E10E94A6
:1021A00018078111FBCF88EC90E00E940B07B2CF9B
:1021B0000E94090782E090E00E940F0A882309F438
:1021C00046C03E9A3F9A81E090E00E940F0A282F75
:1021D0002470722E81FF10C021112E9801EF1FEF85
:1021E000E8E0EE2EF12C80E40E941807882391F19C
:1021F0002E9A2F9A0E94090782E390E00E940B0713
:102200000E9410078111F8CF80E1809300011092A5
:1022100032019E012F5F3F4F3CA32BA38FB7F89451
:102220004091BB015091BC016091BD017091BE0114
:102230008FBFF0903501FF2009F4CBC0109235011B
:1022400080E090E0892B51F30E940000E7CF3E9898
:102250003F98B9CF772029F00430110511F42E9A58
:102260002F9881E00E948E04980117FF04C0222756
:102270003327201B310B27703327C80117FD079622
:1022800073E0959587957A95E1F717FF05C001975B
:10229000A701421B530B9A01AC015695542F4427BA
:1022A0005795479543525E4FB0E0A0E02701421A90
:1022B000530A8E3F6FEF960709F43BC05A0174E949
:1022C000A70EB11C6A0170E060E0FD01E65CF94F09
:1022D0004F018F3F980779F0F401E60FF71FE49163
:1022E000F0E01F01022E01C0220C0A94EAF7F60169
:1022F00064882628248A2115310581F0F401E60F2F
:10230000F71FE491F0E01F01042C02C035942794DC
:102310000A94E2F7F5016080262820826F5F7F4FE4
:10232000FFEFAF1ABF0AEFEFCE1ADE0A683571056C
:1023300081F60196A85ABF4F40585F4FA03BB105A8
:1023400009F0B7CF0E9423078FE090E00E940B07AF
:102350000F5F1F4F0931110509F045CF772011F0AC
:102360002F9A2D9880E991E00E940B070E9409079F
:1023700081E090E00E940F0A80FF3ECF8AE090E06B
:102380000E940F0A9FEF980F9E3F08F035CF22E37F
:1023900030E03093DC012093DB0128E330E0309320
:1023A000DA012093D9010BE010E0682F8DE296E06E
:1023B0000E944407C8010E940F0A0F5F1F4F01319E
:1023C000110599F70E94230788EE93E00E940B07FE
:1023D00013CF80913601342F381B832F9091000149
:1023E000391748F48F5F891708F02ACF81E083BF3F
:1023F000889513BE25CF81E0809335014093360147
:10240000809133019091340101969093340180932F
:102410003301C0903801C09237010E941007D82EB6
:102420008093380180E40E941807082F80E20E9400
:102430001807E82E80E10E941807182F80E80E94F4
:102440001807D3FA442740F9C3FC40E0C2FC03C09C
:10245000D2FAFF24F0F8909139019111A0C04111F6
:1024600002C0FF2089F1EFE3F1E085E0DF011D927A
:102470008A95E9F781E08093390120EC33E03093CD
:102480003B0120933A0120E931E030933D01209354
:102490003C0196E090933E0180933F0186E7E4E49F
:1024A000F1E0DF011D928A95E9F788E796E5A4E35C
:1024B000B2E18093AF019093B001A093B101B093CA
:1024C000B2018EE18093B90180E0EDEDF1E0811180
:1024D0008FEF002481938193819381930394D1F7AB
:1024E0001092DA011092D9011092DC011092DB01F6
:1024F000809139018111D8C683E190E09093DC018D
:102500008093DB0185E090E09093DA018093D9011C
:1025100089EC97E00E94BA078FE190E09093DC018C
:102520008093DB0185E190E09093DA018093D901FB
:102530008DEB97E00E94BA078AE090E09093DC016F
:102540008093DB0181E290E09093DA018093D901DE
:1025500089EA97E00E94BA0780E190E09093DC015D
:102560008093DB018BE290E09093DA018093D901B4
:1025700088E997E00E94BA078CE190E09093DC0133
:102580008093DB0187E390E09093DA018093D90197
:102590008BE897E00E94BA070E94230751CE923041
:1025A00009F46BC190914001992319F091509093D7
:1025B000400190914201992319F09150909342016A
:1025C000902F9E19092F181B80914301882309F42D
:1025D00064C1442331F06FE371E083E491E00E9431
:1025E000CD08FF2031F061E471E083E491E00E94C6
:1025F000CD084090430120E1442071F080913E01DC
:10260000082F0370015090E09595879595958795D3
:1026100083701FEF180F20E4002349F0112339F0D5
:10262000B5EB2B9F9001112420583F4F232F129F71
:10263000802D1124029F202D1124022E000C330B1B
:1026400038A72FA337FF03C0319521953109082EF4
:10265000000C990B1C0197FF03C09195819591097E
:10266000281708F4282F30E0215F3F4F4901A4E0EC
:1026700095948794AA95E1F789A66101AFA0B8A4C3
:102680007724739410E020E0E9A4E71408F441C033
:10269000F5E0FF2E7F1409F43CC0E0903C01F0907F
:1026A0003D01FEA2EDA2C501B4010E94741D662E7B
:1026B000C601B4010E94741D562E80913A0190917A
:1026C0003B01860D911D67FC9A9560E078E0821BC6
:1026D000910927FD93950E94E7097C018DA19EA198
:1026E000850D911D57FC9A9560E873E0811B910957
:1026F00017FD93950E94E7098C01442009F4EAC074
:10270000BC01C7010E94DE0B882309F4DAC01092D5
:10271000430180914301882319F081508093430144
:1027200000913C0110913D0120913A0130913B0113
:1027300090916C01992319F0915090936C0160E095
:1027400078E0C901C8960E94E7099EA38DA360E8BE
:1027500073E0C801C8960E94E70998A78FA3F0907C
:10276000B901FF2009F4F2C0FA94F092B901F11016
:10277000EDC0E9E3CE2EE1E0DE2E29E631E0F60100
:1027800080AD887F80AF36962E173F07C9F78091BE
:10279000B501612C823028F46091B6010E94AF0827
:1027A000682EF61409F4D0C028E0F21609F4CCC063
:1027B0008091B501823008F0B3C04F2D6091B60111
:1027C0000E947F08E62E772E662309F4A9C01AA27C
:1027D00019828E010F5F1F4F9E012E5D3F4F4F2DBF
:1027E0006091B6018091B5010E94DA0AAAA030E199
:1027F000A39E50011124898040E1849E4001112450
:1028000040E058E06DA17EA1C5010E94CA098C017B
:1028100040E853E06FA178A5C4010E94CA09AC0149
:102820009801D8010E94881D1B012C019A01DA0130
:102830000E94881D620D731D841D951D6115744CC9
:102840008105910514F00C94AE1C80EE90E017FD0C
:1028500006C080E29FEF012B11F490E080E000EED3
:1028600010E057FF02C00C94871C452B11F40C9408
:10287000811C00E21FEF0C94871C411103C0FF2054
:1028800009F422CE1092B8011092B7018EE1809324
:10289000B90181E08093390117CE911103C0112352
:1028A00009F497CE212F012E000C330B2F5F3F4FE1
:1028B000220F331F220F331F9F5F922B90933E01F5
:1028C00088CEF0923B01E0923A0110933D010093D3
:1028D0003C0114C06DA17EA1C7010E94DE0B8111D5
:1028E00004C0F0923B01E0923A01B80180913A01B4
:1028F00090913B010E94DE0B882339F37394EFA083
:10290000F8A4AE0CBF1CC20CD31C152D262DBCCEBA
:10291000B8E07B9EC00111248260F60180AF71AEE9
:10292000F394F6E0CF0ED11C3CCF872D66E00E94D9
:10293000541D965FF8E09F9FC001112483600C94A2
:10294000DB1CF60110AEECCF1092B70129E331E0A9
:102950003AA729A749E6242E41E0342E290153E164
:10296000752ED201D8968C91982F977009F47AC061
:10297000923009F43EC1933009F435C196E0992EA6
:10298000F201A4A8B5A840E058E06DA17EA1C50160
:102990000E94CA096C01D201D696ED90FC9040E8E5
:1029A00053E06FA178A5C7010E94CA09C114D104E0
:1029B00019F4009709F456C0A601D7FE04C04427B5
:1029C00055274C195D099C0197FF04C02227332726
:1029D000281B390B241735070CF00EC1192D1C14B8
:1029E0001D040CF0119500E0009759F0092D069593
:1029F0001816190634F0892D90E095958795082FC3
:102A00000195C12E012E000CDD0860E078E0C501C3
:102A10008C0D9D1D0E94E7094C01B7010E94340AEC
:102A2000682EA02E002E000CBB08F20186A997A9E3
:102A300060E873E08A0D9B1D0E94E7097C01BC01E0
:102A4000D201D4968D919C910E94340A6110B8C72E
:102A5000F20195AA84AA811105C0D201D796FC92F1
:102A6000EE92D697B6E04B0E511C2414350409F0B3
:102A700078CFB9E3AB2EB1E0BB2E912C9394F50146
:102A800080AD877095012A5F3F4F38AB2FA7882311
:102A900009F4E2C03901892C37E0381508F4DCC0AC
:102AA000D301D8968C91D897877009F497C0F50117
:102AB000C4A8D5A8D4966D917C9140E058E0C60199
:102AC0000E94CA098C01D501D6962D903C90F30145
:102AD00066A977A940E853E0C1010E94CA0998019C
:102AE00017FF04C022273327201B310B2036310566
:102AF0000CF074C09C0197FF04C022273327281BC9
:102B0000390B203631050CF069C022E01016110691
:102B10000CF02EEF02E0181619060CF00EEFE22E64
:102B2000220FFF0860E078E0C6018E199F090E941D
:102B3000E7099CA78BA7002E000C110B60E873E03F
:102B4000C101801B910B0E94E7096C01B1018BA5AB
:102B50009CA50E94340A811107C0EBA5FCA5D501F4
:102B6000D596FC93EE93D497B601D501D4968D916A
:102B70009C910E94340A811103C0F501D7AAC6AA0C
:102B8000D301D4968D919C9160E078E08E0D9F1DCD
:102B90000E94E7097C01F301C6A8D7A860E873E0AA
:102BA000C8018C0D9D1D0E94E7098C01B601C7016B
:102BB0000E94340A811105C0D301D596FC92EE9291
:102BC000D497B801F30184A995A90E94340A811110
:102BD00005C0D301D7961C930E93D6978394B6E085
:102BE0006B0E711C59CF869586958695972C981AF1
:102BF000C7CE88E0982EC4CE092D181619060CF001
:102C0000019510E0C114D10409F4FBCE192D1695DD
:102C10001C141D040CF4F5CE892D90E09595879534
:102C2000182F1195EECED201D6968D919C9160E829
:102C300073E08C0D9D1D0E94E7098C01BC01F2011F
:102C400084A995A90E94340A81110CCFD201D7968C
:102C50001C930E93D69706CFAFA4B8A8E8E09E12B7
:102C60000DCF8091A201882319F081508093A20199
:102C70008091A801882319F081508093A801809148
:102C8000AE01882319F081508093AE01E9E3F1E0B1
:102C900080AD877071F536964E165F06C9F7809144
:102CA000B701811126C081E08093B7019091B601F0
:102CB0009F5F9093B6018091B501823068F4E82F50
:102CC000F0E0EE0FFF1FE552F84F25913491F90126
:102CD0002491921708F494C01092B6018F5F82304D
:102CE00008F08BC08093B50181E08093B801109209
:102CF000B90169E3E62E61E0F62E77E0272ED701D1
:102D00005D968C91882309F496C0E1E0F0E0FCA781
:102D1000EBA730E020E0D7015B964C916BA57CA53A
:102D20004603C001479F900D112497FD01966C0149
:102D3000D594C794D8AACFA6D7015C964C916BA521
:102D40007CA54603C001479F900D112497FD019675
:102D50006C01D594C794DAAAC9AAC9A8C31A0C2CC5
:102D6000000CDD08AFA4A21A0A2C000CBB08D70186
:102D700059964D905C905A9757966D907C9096011D
:102D8000A501B201C3010E94A00B8111FBC039E370
:102D9000832E31E0932E312CF40185858370A1F5CB
:102DA0003394F4E08F0E911C23E03212F5CFD7015B
:102DB00057968D919C9160E078E08A0D9B1D0E9452
:102DC000E709F701908F878B818D928D60E873E022
:102DD0008C0D9D1D0E94E709D7015A969C938E93F6
:102DE00059972FA539A9EBA5FCA5329709F4CCC0BA
:102DF00042E050E05CA74BA78ECF1092B50174CF94
:102E00008EE18093B90175CF2B822C8283858983D3
:102E100084858A838E010F5F1F4F9601A501B20141
:102E2000C3010E94DD08882309F4BACF832DF7017E
:102E3000158E87FFB1C027E0E20EF11C45E551E099
:102E40004E155F0509F05BCF19E3612E11E0712E7D
:102E500096E003E6A02E01E0B02E8DE7D82ED30138
:102E60005D968C91882309F4B8C0EDE6F1E050E05E
:102E700040E0C4808C2D877009F41DC10081118150
:102E8000D30157962D913C915897201B310B205A16
:102E90003F4F213C310508F00EC162817381599684
:102EA0002D913C91261B370B205D3F4F213631057C
:102EB00008F001C1C694C694C694B1E0BC1508F4EC
:102EC00082C0823009F0E2C0949F9001959F300D3E
:102ED0001124275C3E4FD901D9969C90C92C209192
:102EE000A201222309F4DFC02091A801222309F4C2
:102EF000DDC02091AE0121110FC029EA31E0D901D6
:102F000011961C930E9313967C936E9312971496BE
:102F10009C9214971596DC926481687F823009F048
:102F2000C8C0B1E0BC1508F0C4C0949F9001959F43
:102F3000300D1124275C3E4FD901D4964D915C9100
:102F4000D597D6962D913C91C6946483B8E0CB9EDC
:102F5000B00111246260E9E3F1E080E070AD7770C8
:102F600009F04CC555AB44AB37AB26AB60AFC1AE37
:102F70008F5FAE16BF0619F03696823079F7F301EF
:102F8000158E2BC08EEF53CFD7015D968C915D9738
:102F900081505D968C934FCFB4E08B02C001112419
:102FA000FC01EC5BFE4F22812370223040F4128240
:102FB000875C9E4F2DE7C22EFC01C6863CCF215078
:102FC0002861228338CFCA9448E0C49E900111241E
:102FD000822B8483D3015D961C92F7E06F0E711CE7
:102FE000E614F70409F03BCFEDE9F1E00FEA11E058
:102FF000B12C8581882311F1A081B181CDA0DEA003
:10300000AC19BD0942815381EFA0F8A44E195F09A4
:103010009D010E94881D6B017C019A01DA010E94CA
:10302000881DC60ED71EE81EF91EC11424E6D2065E
:10303000E104F1041CF48481B80E158236960E1753
:103040001F07B9F68091B3019091B4018B0D911DCA
:103050009093B4018093B30180916C0181110FC0F2
:10306000E9E3F1E0512C412C358C332061F13FEF45
:10307000431A530A379644E044165104A9F7809145
:10308000B801882309F420CA82E004CCAFE09A2E6C
:10309000833009F424CFB5E09B2E813009F41FCF93
:1030A000992493941CCF2DE931E029CF23EA31E014
:1030B00026CF648364CF4F5F5F4F3696483051050B
:1030C00009F0D7CE8ACF712C612C10E000E02224C9
:1030D0002A9488248394912C39E0A32EB12CA9A59D
:1030E000BAA5D8968C91D897877009F448C060E04B
:1030F00078E0D4968D919C910E94E7096C0160E87C
:1031000073E0E9A5FAA586A997A90E94E7097C01C1
:1031100040E058E0B6018DA19EA10E94CA098FA788
:1031200099AB40E853E0B7018FA198A50E94CA0966
:10313000582F492F2FA539A9D9010E94881D6BA7A7
:103140007CA78DA79EA7252F342FA52FB42F0E94D3
:10315000881DCBA4DCA4EDA4FEA4C60ED71EE81ED9
:10316000F91ED701C60188159905AA05BB0538F4D3
:10317000652E742E0FA519A946015701232C3394EF
:1031800029A53AA52A5F3F4F3AA729A738E033126D
:10319000A6CF4FEF241609F472CF9301A8016FA1B7
:1031A00078A58DA19EA10E94A00BE12C23E0F22E18
:1031B00041E050E0811163CF4E155F05A0F4F701A7
:1031C000E40FF51FF695E7959F01DF010E94451D6D
:1031D000681579058A059B0520F4AF014F5F5F4FA5
:1031E000EBCF7F01E9CF4A0196948794B12CA12CB3
:1031F0006A01F12CE12CB80117FF04C0662777277C
:10320000601B710B072E000C880B990BB5E0660F45
:10321000771F881F991FBA95D1F7680D791D8A1DF0
:103220009B1DA70196010E94231D322E17FD31948C
:10323000B30177FE04C06627772766197709072E42
:10324000000C880B990BA5E0660F771F881F991F4C
:10325000AA95D1F7680D791D8A1D9B1DA7019601BE
:103260000E94231D77FE19C0219587E0849DF001FF
:10327000859DF00D1124E05BFE4FCDA0DEA0D18234
:10328000C082EFA0F8A4F382E2823482258380E436
:10329000868389E180936C01F2CE012B31F7672898
:1032A00021F7F0E23F2EE1CF0CE010E0823009F090
:1032B00069C088E190E09093DC018093DB0185E0B8
:1032C00090E09093DA018093D9018DE797E00E9416
:1032D000BA0786E290E09093DC018093DB0185E100
:1032E00090E09093DA018093D90185E797E00E94FE
:1032F000BA072091B3013091B40150E040E019A227
:103300008E010F5D1F4FCA01B9012AE030E040E095
:1033100050E00E94231D605DD8016E938D01211540
:1033200031054105510579F7109769F0FD010190CC
:103330000020E9F73197AF014A1B5B0BBD018DE21D
:1033400096E00E94DC0684E190E09093DC0180939B
:10335000DB0183E290E09093DA018093D90188E663
:1033600097E00E94BA078AE190E09093DC01809395
:10337000DB0182E390E09093DA018093D90188E544
:1033800097E008C9E4E0EE2EF12C41E0B801C70156
:103390000E942607BCE0EB0EF11CE8E8EE16F104F3
:1033A000A1F7045F1F4F0834110561F7612C862DCA
:1033B0000E94110A782E592E072F10E05801F8E0CC
:1033C000AF0EB11CE62EF12C67014701880E911C4F
:1033D000C814D90454F420E0452DB501C6010E945B
:1033E000D5072FEFC21AD20AF3CF252D472DB501ED
:1033F000C7010E94FE07B801665F7F4F6034710508
:1034000034F44CEF470DC70102960E945A046394AE
:1034100034E06312CCCF8091B901882309F451C004
:103420008091B501823008F04CC06091B6010E94D5
:10343000AF08E82EF12CFE1409F443C08091B501C9
:10344000823038F44F2D6091B6010E947F086111DF
:1034500002C0F394F0CF1AA219828E010F5F1F4FA2
:103460009E012E5D3F4F4F2D6091B6018091B501B9
:103470000E94DA0A8AA160E870E090E00E94E70901
:103480006C01898168E370E090E00E94E709209177
:10349000B90120FFDECF5C0146E0A40EB11C86011D
:1034A0000250110952E0C50ED11CC016D10689F296
:1034B00021E044E0B501C8010E94D5070F5F1F4F0E
:1034C000F4CF79E3272E71E0372E8101D801D89609
:1034D0008C91982F977009F4A0C086958695869553
:1034E00009F49BC0923009F4F2C1933009F4F2C19F
:1034F000913009F092C0B8E7B983803108F4EFC188
:1035000061E3C62ECA828F708A3008F0E6C1805D02
:103510008B8323E02DA3D801D4968D919C9197FDA8
:103520000F9660E870E054E0959587955A95E1F71D
:103530000E94E7097C01F80186A997A997FD0F96DB
:1035400068E370E024E0959587952A95E1F70E945D
:10355000E7093C01F2E06F1A7108CDA02C2D30E094
:10356000220F331FE21AF30A9E012F5F3F4F2901FA
:10357000AC014D5F5F4F58A74FA3D2019D912D0124
:1035800080ED890F8A3038F08FEB890F863008F094
:10359000B2C189EC890FB5E08B9FC0011124FC01F9
:1035A000E250F94F5F014301F5018491D12CC12C08
:1035B000282F30E03AA729A788E090E00C2C02C021
:1035C000959587950A94E2F749A55AA584239523F2
:1035D000892B39F041E0B401C7018C0D9D1D0E947B
:1035E000F2095FEFC51AD50A64E0C616D10421F7C7
:1035F0007FEFA71AB70A8FEF881A980ACFA0D8A42E
:10360000C814D90489F624E0E20EF11C842D3BA1F4
:10361000831BCDA08C1508F4B0CF0A5F1F4F89E63D
:10362000E82E81E0F82EE016F10609F04FCF1DE9F3
:10363000412E11E0512ED20115968C9115978823B9
:1036400009F46BC08D919C9197FD0F9660E870E036
:10365000B4E095958795BA95E1F70E94E7095C017A
:10366000F2018281938197FD0F9668E370E0A4E0F8
:1036700095958795AA95E1F70E94E7098C016C0161
:10368000F9E0CF0ED11C75012FEFE21AF20A3C01CE
:103690003AE0630E711C41E0B301C7010E942607A6
:1036A000085F1F4F41E0B801C7010E94260745018E
:1036B00042E0840E911C41E0B601C4010E9426073D
:1036C00041E0B601C5010E94260741E0B601C401F0
:1036D0000E94260741E0B601C5010E94260741E08D
:1036E000B601C4010E94260741E0B601C5010E944F
:1036F000260741E0B301C7010E94260741E0B3015C
:10370000C7010E94260741E0B801C7010E942607B1
:1037100041E0B801C7010E94260756E0450E511C42
:103720006FEA71E06415750509F085CF40903C01A2
:1037300050903D0157FE03C07FE0470E511CE4E06E
:1037400055944794EA95E1F700913E01802F8370EC
:10375000682E6A94660C770893E0690E711C10E07D
:10376000159507951595079503700150000F110BDE
:103770000D5F1F4FE0903A01F0903B01F7FE03C050
:10378000AFE0EA0EF11C74E0F594E7947A95E1F766
:10379000B12CA12CF501E950F94FE491D12CC12CA9
:1037A0008E2E912CA614B70419F4C016D10671F010
:1037B000C4010C2C02C0959587950A94E2F741E06C
:1037C00080FD05C080914301811101C040E0B2013C
:1037D0006C0D7D1DC7010E94F209BFEFCB1ADB0AF9
:1037E000E7E0CE16D104F1F6FFEFAF1ABF0A2FEFD4
:1037F000E21AF20A37E0A316B10461F665E5E62E97
:1038000061E0F62ED1015D968C91882309F44AC0BF
:1038100010E000E0F101238D2003C001219F900DF5
:10382000112497FD019695958795D10157962D9175
:103830003C9160E078E0F901E81BF90BCF010E94B0
:10384000E7096C01D1015C962C912003C001219FF6
:10385000900D112497FD019695958795F101218D85
:10386000328D60E873E0A901481B590BCA010E9420
:10387000E70997FD0F96BC0134E0759567953A9579
:10388000E1F7C601D7FC0F9641E024E095958795B6
:103890002A95E1F70E94F2090F5F1F4F03301105CF
:1038A00009F0B8CF57E0250E311CE214F30409F0FB
:1038B000A9CF4FE351E061E480E00E942E0841E48B
:1038C00051E062E482E40E942E080C94CC12E4E6FB
:1038D000E98313CEF6E4F98310CE895C19CE8A30E1
:1038E00028F0895C8A8332E03DA315CE805D8A830F
:1038F00042E04DA310CE80E1983709F44CCE81E12F
:103900004ACE10E000E0009711F40C94391460E006
:1039100078E08A0D9B1D0E94E7095C0160E873E076
:10392000C401800F911F0E94E7098C01BC01C501F1
:103930000E94870A882391F0C501B7FC0F9674E0B6
:10394000959587957A95E1F78AA3C80117FD0F969B
:1039500064E0959587956A95E1F789838981B0E15F
:103960008B9FC00111242AA1E0E12E9F9001112418
:10397000D601D5963C932E93D497D7969C938E934D
:10398000D697D9961C92B2E0EB1611F40C948814D9
:10399000E3E0EE1611F40C949514F1E0EF120C94A0
:1039A000A114872D69E00E94541D9E5F28E0929F1C
:1039B000C00111248160D601D8968C930C94901488
:1039C000882309F44AC8111103C0002309F44AC826
:1039D000F20184A995A960E078E08A0D9B1D0E9400
:1039E000E7098C01D201D6966D917C910E94340A30
:1039F000811119C9F20115AB04AB34C8AE16BF066C
:103A000009F4BDCA3696AACAFB01DC0102C00590C2
:103A10000D9241505040D8F70895F999FECF92BDCC
:103A200081BDF89A992780B50895262FF999FECF80
:103A30001FBA92BD81BD20BD0FB6F894FA9AF99ACB
:103A40000FBE01960895A1E21A2EAA1BBB1BFD0111
:103A50000DC0AA1FBB1FEE1FFF1FA217B307E4076D
:103A6000F50720F0A21BB30BE40BF50B661F771FC5
:103A7000881F991F1A9469F76095709580959095A5
:103A80009B01AC01BD01CF010895A29FB001B39F7E
:103A9000C001A39F700D811D1124911DB29F700D57
:103AA000811D1124911D0895991B79E004C0991F6F
:103AB000961708F0961B881F7A95C9F78095089588
:103AC000AA1BBB1B51E107C0AA1FBB1FA617B70744
:103AD00010F0A61BB70B881F991F5A95A9F7809560
:103AE0009095BC01CD01089597FB072E16F4009424
:103AF00007D077FD09D00E94601D07FC05D03EF479
:103B0000909581959F4F0895709561957F4F089589
:103B10000E94451D332312F48A1B9B0B0C94921DAB
:103B20000E94451DB7FF0895821B930B0895EE0F69
:0E3B3000FF1F0590F491E02D0994F894FFCF4B
:103B3E0010FFFFFFFF00E100000000000000C18049
:103B4E008100000000000000EC0457060D05020580
:103B5E00530511052F05000000004407DC06CA08B6
:023B6E00C90884
:00000001FF
